{
  "_format": "hh-sol-artifact-1",
  "contractName": "OfficialMarketUpgradeable",
  "sourceName": "contracts/upgradeables/marketplaceUpgradeables/OfficialMarketUpgradeable.sol",
  "abi": [
    {
      "anonymous": false,
      "inputs": [
        {
          "indexed": false,
          "internalType": "uint256",
          "name": "saleId",
          "type": "uint256"
        },
        {
          "indexed": false,
          "internalType": "bool",
          "name": "isERC721",
          "type": "bool"
        },
        {
          "indexed": false,
          "internalType": "uint256",
          "name": "tokenId",
          "type": "uint256"
        },
        {
          "indexed": false,
          "internalType": "address",
          "name": "nftContract",
          "type": "address"
        },
        {
          "indexed": false,
          "internalType": "uint128",
          "name": "fixedPrice",
          "type": "uint128"
        },
        {
          "indexed": false,
          "internalType": "uint64",
          "name": "startingTime",
          "type": "uint64"
        },
        {
          "indexed": false,
          "internalType": "address",
          "name": "seller",
          "type": "address"
        },
        {
          "indexed": false,
          "internalType": "uint256",
          "name": "amount",
          "type": "uint256"
        }
      ],
      "name": "FixedSaleCreated",
      "type": "event"
    },
    {
      "anonymous": false,
      "inputs": [
        {
          "indexed": false,
          "internalType": "uint256",
          "name": "saleId",
          "type": "uint256"
        },
        {
          "indexed": false,
          "internalType": "uint256",
          "name": "tokenId",
          "type": "uint256"
        },
        {
          "indexed": false,
          "internalType": "address",
          "name": "nftContract",
          "type": "address"
        },
        {
          "indexed": false,
          "internalType": "address",
          "name": "seller",
          "type": "address"
        }
      ],
      "name": "FixedSaleFinished",
      "type": "event"
    },
    {
      "anonymous": false,
      "inputs": [
        {
          "indexed": false,
          "internalType": "uint256",
          "name": "saleId",
          "type": "uint256"
        },
        {
          "indexed": false,
          "internalType": "bool",
          "name": "isERC721",
          "type": "bool"
        },
        {
          "indexed": false,
          "internalType": "uint256",
          "name": "tokenId",
          "type": "uint256"
        },
        {
          "indexed": false,
          "internalType": "address",
          "name": "nftContract",
          "type": "address"
        },
        {
          "indexed": false,
          "internalType": "uint256",
          "name": "totalPrice",
          "type": "uint256"
        },
        {
          "indexed": false,
          "internalType": "address",
          "name": "winner",
          "type": "address"
        },
        {
          "indexed": false,
          "internalType": "address",
          "name": "seller",
          "type": "address"
        }
      ],
      "name": "FixedSaleSuccessful",
      "type": "event"
    },
    {
      "anonymous": false,
      "inputs": [
        {
          "indexed": false,
          "internalType": "uint256",
          "name": "minTokensBeforeSwap",
          "type": "uint256"
        }
      ],
      "name": "MinTokensBeforeSwapUpdated",
      "type": "event"
    },
    {
      "anonymous": false,
      "inputs": [
        {
          "indexed": false,
          "internalType": "address",
          "name": "account",
          "type": "address"
        }
      ],
      "name": "Paused",
      "type": "event"
    },
    {
      "anonymous": false,
      "inputs": [
        {
          "indexed": true,
          "internalType": "bytes32",
          "name": "role",
          "type": "bytes32"
        },
        {
          "indexed": true,
          "internalType": "bytes32",
          "name": "previousAdminRole",
          "type": "bytes32"
        },
        {
          "indexed": true,
          "internalType": "bytes32",
          "name": "newAdminRole",
          "type": "bytes32"
        }
      ],
      "name": "RoleAdminChanged",
      "type": "event"
    },
    {
      "anonymous": false,
      "inputs": [
        {
          "indexed": true,
          "internalType": "bytes32",
          "name": "role",
          "type": "bytes32"
        },
        {
          "indexed": true,
          "internalType": "address",
          "name": "account",
          "type": "address"
        },
        {
          "indexed": true,
          "internalType": "address",
          "name": "sender",
          "type": "address"
        }
      ],
      "name": "RoleGranted",
      "type": "event"
    },
    {
      "anonymous": false,
      "inputs": [
        {
          "indexed": true,
          "internalType": "bytes32",
          "name": "role",
          "type": "bytes32"
        },
        {
          "indexed": true,
          "internalType": "address",
          "name": "account",
          "type": "address"
        },
        {
          "indexed": true,
          "internalType": "address",
          "name": "sender",
          "type": "address"
        }
      ],
      "name": "RoleRevoked",
      "type": "event"
    },
    {
      "anonymous": false,
      "inputs": [
        {
          "indexed": false,
          "internalType": "uint256",
          "name": "tokensSwapped",
          "type": "uint256"
        },
        {
          "indexed": false,
          "internalType": "uint256",
          "name": "ethReceived",
          "type": "uint256"
        },
        {
          "indexed": false,
          "internalType": "uint256",
          "name": "tokensIntoLiqudity",
          "type": "uint256"
        }
      ],
      "name": "SwapAndLiquify",
      "type": "event"
    },
    {
      "anonymous": false,
      "inputs": [
        {
          "indexed": false,
          "internalType": "bool",
          "name": "enabled",
          "type": "bool"
        }
      ],
      "name": "SwapAndLiquifyEnabledUpdated",
      "type": "event"
    },
    {
      "anonymous": false,
      "inputs": [
        {
          "indexed": false,
          "internalType": "address",
          "name": "account",
          "type": "address"
        }
      ],
      "name": "Unpaused",
      "type": "event"
    },
    {
      "inputs": [],
      "name": "ARTIST_CUT",
      "outputs": [
        {
          "internalType": "uint16",
          "name": "",
          "type": "uint16"
        }
      ],
      "stateMutability": "view",
      "type": "function"
    },
    {
      "inputs": [],
      "name": "DEFAULT_ADMIN_ROLE",
      "outputs": [
        {
          "internalType": "bytes32",
          "name": "",
          "type": "bytes32"
        }
      ],
      "stateMutability": "view",
      "type": "function"
    },
    {
      "inputs": [],
      "name": "LISTER_ROLE",
      "outputs": [
        {
          "internalType": "bytes32",
          "name": "",
          "type": "bytes32"
        }
      ],
      "stateMutability": "view",
      "type": "function"
    },
    {
      "inputs": [],
      "name": "animeCut",
      "outputs": [
        {
          "internalType": "uint16",
          "name": "",
          "type": "uint16"
        }
      ],
      "stateMutability": "view",
      "type": "function"
    },
    {
      "inputs": [],
      "name": "artistNFTAddress",
      "outputs": [
        {
          "internalType": "address",
          "name": "",
          "type": "address"
        }
      ],
      "stateMutability": "view",
      "type": "function"
    },
    {
      "inputs": [
        {
          "internalType": "uint256",
          "name": "_saleId",
          "type": "uint256"
        }
      ],
      "name": "buy",
      "outputs": [],
      "stateMutability": "nonpayable",
      "type": "function"
    },
    {
      "inputs": [
        {
          "internalType": "uint16",
          "name": "_serverCut",
          "type": "uint16"
        },
        {
          "internalType": "uint16",
          "name": "_liquidityCut",
          "type": "uint16"
        },
        {
          "internalType": "uint16",
          "name": "_animeCut",
          "type": "uint16"
        }
      ],
      "name": "changeFees",
      "outputs": [],
      "stateMutability": "nonpayable",
      "type": "function"
    },
    {
      "inputs": [
        {
          "internalType": "uint256",
          "name": "_liquidityTokenThreshold",
          "type": "uint256"
        }
      ],
      "name": "changeLiquidityTokenThreshold",
      "outputs": [],
      "stateMutability": "nonpayable",
      "type": "function"
    },
    {
      "inputs": [
        {
          "internalType": "address",
          "name": "_serverWallet",
          "type": "address"
        },
        {
          "internalType": "address",
          "name": "_animeWallet",
          "type": "address"
        }
      ],
      "name": "changeWalletAddresses",
      "outputs": [],
      "stateMutability": "nonpayable",
      "type": "function"
    },
    {
      "inputs": [
        {
          "internalType": "address",
          "name": "_nftAddress",
          "type": "address"
        },
        {
          "internalType": "uint256[]",
          "name": "_tokenId",
          "type": "uint256[]"
        },
        {
          "internalType": "uint256[]",
          "name": "_amount",
          "type": "uint256[]"
        },
        {
          "internalType": "uint128[]",
          "name": "_fixedPrice",
          "type": "uint128[]"
        },
        {
          "internalType": "uint64[]",
          "name": "_startingTime",
          "type": "uint64[]"
        }
      ],
      "name": "createBulkSaleFixedPrice",
      "outputs": [],
      "stateMutability": "nonpayable",
      "type": "function"
    },
    {
      "inputs": [
        {
          "internalType": "address",
          "name": "_nftAddress",
          "type": "address"
        },
        {
          "internalType": "uint256",
          "name": "_tokenId",
          "type": "uint256"
        },
        {
          "internalType": "uint128",
          "name": "_fixedPrice",
          "type": "uint128"
        },
        {
          "internalType": "uint64",
          "name": "_startingTime",
          "type": "uint64"
        },
        {
          "internalType": "uint256",
          "name": "_sales",
          "type": "uint256"
        }
      ],
      "name": "createBulkSaleSameToken",
      "outputs": [],
      "stateMutability": "nonpayable",
      "type": "function"
    },
    {
      "inputs": [
        {
          "internalType": "address",
          "name": "_nftAddress",
          "type": "address"
        },
        {
          "internalType": "uint256",
          "name": "_tokenId",
          "type": "uint256"
        },
        {
          "internalType": "uint256",
          "name": "_amount",
          "type": "uint256"
        },
        {
          "internalType": "uint128",
          "name": "_fixedPrice",
          "type": "uint128"
        },
        {
          "internalType": "uint64",
          "name": "_startingTime",
          "type": "uint64"
        }
      ],
      "name": "createSaleFixedPrice",
      "outputs": [],
      "stateMutability": "nonpayable",
      "type": "function"
    },
    {
      "inputs": [
        {
          "internalType": "uint256",
          "name": "_saleId",
          "type": "uint256"
        }
      ],
      "name": "finishFixedSale",
      "outputs": [],
      "stateMutability": "nonpayable",
      "type": "function"
    },
    {
      "inputs": [
        {
          "internalType": "uint256",
          "name": "_saleId",
          "type": "uint256"
        }
      ],
      "name": "getFixedSale",
      "outputs": [
        {
          "internalType": "uint256",
          "name": "tokenId",
          "type": "uint256"
        },
        {
          "internalType": "address",
          "name": "tokenContract",
          "type": "address"
        },
        {
          "internalType": "address",
          "name": "seller",
          "type": "address"
        },
        {
          "internalType": "uint256",
          "name": "fixedPrice",
          "type": "uint256"
        },
        {
          "internalType": "uint256",
          "name": "startedAt",
          "type": "uint256"
        },
        {
          "internalType": "uint256",
          "name": "amount",
          "type": "uint256"
        },
        {
          "internalType": "bool",
          "name": "isERC721",
          "type": "bool"
        }
      ],
      "stateMutability": "view",
      "type": "function"
    },
    {
      "inputs": [
        {
          "internalType": "bytes32",
          "name": "role",
          "type": "bytes32"
        }
      ],
      "name": "getRoleAdmin",
      "outputs": [
        {
          "internalType": "bytes32",
          "name": "",
          "type": "bytes32"
        }
      ],
      "stateMutability": "view",
      "type": "function"
    },
    {
      "inputs": [
        {
          "internalType": "bytes32",
          "name": "role",
          "type": "bytes32"
        },
        {
          "internalType": "address",
          "name": "account",
          "type": "address"
        }
      ],
      "name": "grantRole",
      "outputs": [],
      "stateMutability": "nonpayable",
      "type": "function"
    },
    {
      "inputs": [
        {
          "internalType": "bytes32",
          "name": "role",
          "type": "bytes32"
        },
        {
          "internalType": "address",
          "name": "account",
          "type": "address"
        }
      ],
      "name": "hasRole",
      "outputs": [
        {
          "internalType": "bool",
          "name": "",
          "type": "bool"
        }
      ],
      "stateMutability": "view",
      "type": "function"
    },
    {
      "inputs": [
        {
          "internalType": "address",
          "name": "_artistNFTAddress",
          "type": "address"
        },
        {
          "internalType": "address",
          "name": "_busdAddress",
          "type": "address"
        },
        {
          "internalType": "address",
          "name": "_ecchiCoinAddress",
          "type": "address"
        },
        {
          "internalType": "uint256",
          "name": "_liquidityTokenThreshhold",
          "type": "uint256"
        }
      ],
      "name": "initialize",
      "outputs": [],
      "stateMutability": "nonpayable",
      "type": "function"
    },
    {
      "inputs": [],
      "name": "liquidityCut",
      "outputs": [
        {
          "internalType": "uint16",
          "name": "",
          "type": "uint16"
        }
      ],
      "stateMutability": "view",
      "type": "function"
    },
    {
      "inputs": [],
      "name": "liquidityTokens",
      "outputs": [
        {
          "internalType": "uint256",
          "name": "",
          "type": "uint256"
        }
      ],
      "stateMutability": "view",
      "type": "function"
    },
    {
      "inputs": [],
      "name": "numTokensSellToAddToLiquidity",
      "outputs": [
        {
          "internalType": "uint256",
          "name": "",
          "type": "uint256"
        }
      ],
      "stateMutability": "view",
      "type": "function"
    },
    {
      "inputs": [
        {
          "internalType": "address",
          "name": "",
          "type": "address"
        },
        {
          "internalType": "address",
          "name": "",
          "type": "address"
        },
        {
          "internalType": "uint256[]",
          "name": "",
          "type": "uint256[]"
        },
        {
          "internalType": "uint256[]",
          "name": "",
          "type": "uint256[]"
        },
        {
          "internalType": "bytes",
          "name": "",
          "type": "bytes"
        }
      ],
      "name": "onERC1155BatchReceived",
      "outputs": [
        {
          "internalType": "bytes4",
          "name": "",
          "type": "bytes4"
        }
      ],
      "stateMutability": "nonpayable",
      "type": "function"
    },
    {
      "inputs": [
        {
          "internalType": "address",
          "name": "",
          "type": "address"
        },
        {
          "internalType": "address",
          "name": "",
          "type": "address"
        },
        {
          "internalType": "uint256",
          "name": "",
          "type": "uint256"
        },
        {
          "internalType": "uint256",
          "name": "",
          "type": "uint256"
        },
        {
          "internalType": "bytes",
          "name": "",
          "type": "bytes"
        }
      ],
      "name": "onERC1155Received",
      "outputs": [
        {
          "internalType": "bytes4",
          "name": "",
          "type": "bytes4"
        }
      ],
      "stateMutability": "nonpayable",
      "type": "function"
    },
    {
      "inputs": [
        {
          "internalType": "address",
          "name": "_operator",
          "type": "address"
        },
        {
          "internalType": "address",
          "name": "_from",
          "type": "address"
        },
        {
          "internalType": "uint256",
          "name": "_tokenId",
          "type": "uint256"
        },
        {
          "internalType": "bytes",
          "name": "_data",
          "type": "bytes"
        }
      ],
      "name": "onERC721Received",
      "outputs": [
        {
          "internalType": "bytes4",
          "name": "",
          "type": "bytes4"
        }
      ],
      "stateMutability": "nonpayable",
      "type": "function"
    },
    {
      "inputs": [],
      "name": "pancakeRouter",
      "outputs": [
        {
          "internalType": "contract IPancakeRouter02",
          "name": "",
          "type": "address"
        }
      ],
      "stateMutability": "view",
      "type": "function"
    },
    {
      "inputs": [],
      "name": "pause",
      "outputs": [],
      "stateMutability": "nonpayable",
      "type": "function"
    },
    {
      "inputs": [],
      "name": "paused",
      "outputs": [
        {
          "internalType": "bool",
          "name": "",
          "type": "bool"
        }
      ],
      "stateMutability": "view",
      "type": "function"
    },
    {
      "inputs": [
        {
          "internalType": "bytes32",
          "name": "role",
          "type": "bytes32"
        },
        {
          "internalType": "address",
          "name": "account",
          "type": "address"
        }
      ],
      "name": "renounceRole",
      "outputs": [],
      "stateMutability": "nonpayable",
      "type": "function"
    },
    {
      "inputs": [
        {
          "internalType": "bytes32",
          "name": "role",
          "type": "bytes32"
        },
        {
          "internalType": "address",
          "name": "account",
          "type": "address"
        }
      ],
      "name": "revokeRole",
      "outputs": [],
      "stateMutability": "nonpayable",
      "type": "function"
    },
    {
      "inputs": [],
      "name": "serverCut",
      "outputs": [
        {
          "internalType": "uint16",
          "name": "",
          "type": "uint16"
        }
      ],
      "stateMutability": "view",
      "type": "function"
    },
    {
      "inputs": [
        {
          "internalType": "bytes4",
          "name": "interfaceId",
          "type": "bytes4"
        }
      ],
      "name": "supportsInterface",
      "outputs": [
        {
          "internalType": "bool",
          "name": "",
          "type": "bool"
        }
      ],
      "stateMutability": "view",
      "type": "function"
    },
    {
      "inputs": [],
      "name": "swapAndLiquifyEnabled",
      "outputs": [
        {
          "internalType": "bool",
          "name": "",
          "type": "bool"
        }
      ],
      "stateMutability": "view",
      "type": "function"
    },
    {
      "inputs": [],
      "name": "unpause",
      "outputs": [],
      "stateMutability": "nonpayable",
      "type": "function"
    },
    {
      "inputs": [],
      "name": "withdrawToken",
      "outputs": [],
      "stateMutability": "nonpayable",
      "type": "function"
    },
    {
      "inputs": [],
      "name": "withdrawToken2",
      "outputs": [],
      "stateMutability": "nonpayable",
      "type": "function"
    }
  ],
  "bytecode": "0x608060405234801561001057600080fd5b50614051806100206000396000f3fe608060405234801561001057600080fd5b50600436106102415760003560e01c806388a9e5d811610145578063d12a7688116100bd578063dd281da91161008c578063e04cd3df11610071578063e04cd3df146105b3578063e78c965e146105c6578063f23a6e61146105d957610241565b8063dd281da914610576578063deb26b941461058c57610241565b8063d12a76881461053e578063d547741f14610548578063d71f4d391461055b578063d96a094a1461056357610241565b8063a934c7f611610114578063c21ebd07116100f9578063c21ebd0714610508578063ca628c7814610523578063cf756fdf1461052b57610241565b8063a934c7f6146104a4578063bc197c81146104d057610241565b806388a9e5d81461040557806391d148541461040d5780639d66face14610446578063a217fddf1461049c57610241565b8063351cb449116101d85780634b8ce602116101a75780635c93e9201161018c5780635c93e920146103de5780635c975abb146103f15780638456cb59146103fd57610241565b80634b8ce602146103c1578063594f04d9146103cb57610241565b8063351cb4491461037e57806336568abe146103915780633f4ba83a146103a45780634a74bb02146103ac57610241565b8063150b7a0211610214578063150b7a02146102d7578063181ec22214610327578063248a9ca31461033a5780632f2ff15d1461036b57610241565b806301ffc9a714610246578063041827af1461026e57806304c50a27146102ac57806310bc41a9146102c2575b600080fd5b610259610254366004613ce2565b610611565b60405190151581526020015b60405180910390f35b61012f54610299907801000000000000000000000000000000000000000000000000900461ffff1681565b60405161ffff9091168152602001610265565b61012f5461029990600160a01b900461ffff1681565b6102d56102d0366004613bd8565b610624565b005b61030e6102e53660046139fa565b7f150b7a0200000000000000000000000000000000000000000000000000000000949350505050565b6040516001600160e01b03199091168152602001610265565b6102d5610335366004613d0a565b6106d0565b61035d610348366004613ca6565b60009081526065602052604090206001015490565b604051908152602001610265565b6102d5610379366004613cbe565b610748565b6102d561038c366004613c2e565b610773565b6102d561039f366004613cbe565b610f61565b6102d5610fed565b6101335461025990600160a81b900460ff1681565b61035d6101305481565b6102d56103d9366004613ca6565b611004565b6102d56103ec3660046138c8565b61106d565b6101365460ff16610259565b6102d56110b7565b6102d56110cb565b61025961041b366004613cbe565b60009182526065602090815260408084206001600160a01b0393909316845291905290205460ff1690565b610459610454366004613ca6565b6111db565b604080519788526001600160a01b03968716602089015294909516938601939093526060850191909152608084015260a0830152151560c082015260e001610265565b61035d600081565b610131546104b8906001600160a01b031681565b6040516001600160a01b039091168152602001610265565b61030e6104de366004613950565b7fbc197c810000000000000000000000000000000000000000000000000000000095945050505050565b6104b8737a250d5630b4cf539739df2c5dacb4c659f2488d81565b6102d56112bc565b6102d5610539366004613900565b61137e565b61035d61012d5481565b6102d5610556366004613cbe565b6115ff565b610299605081565b6102d5610571366004613ca6565b611625565b61012f5461029990600160b01b900461ffff1681565b61035d7ff94103142c1baabe9ac2b5d1487bf783de9e69cfeea9a72f5c9c94afd7877b8c81565b6102d56105c1366004613ca6565b6117c8565b6102d56105d4366004613acb565b6117db565b61030e6105e7366004613a64565b7ff23a6e610000000000000000000000000000000000000000000000000000000095945050505050565b600061061c82611a80565b90505b919050565b7ff94103142c1baabe9ac2b5d1487bf783de9e69cfeea9a72f5c9c94afd7877b8c61065081335b611abe565b6101365460ff161561069c5760405162461bcd60e51b815260206004820152601060248201526f14185d5cd8589b194e881c185d5cd95960821b60448201526064015b60405180910390fd5b60005b828110156106c7576106b5878760018888610773565b806106bf81613fbf565b91505061069f565b50505050505050565b60006106dc813361064b565b505061012f805461ffff928316600160b01b027fffffffffffffffff0000ffffffffffffffffffffffffffffffffffffffffffff94909316600160a01b027fffffffffffffffffffff0000ffffffffffffffffffffffffffffffffffffffff9091161792909216179055565b600082815260656020526040902060010154610764813361064b565b61076e8383611b3e565b505050565b80428167ffffffffffffffff1611156107ec57624f1a0061079e4267ffffffffffffffff8416613f61565b11156107ec5760405162461bcd60e51b815260206004820152601260248201527f53746172742074696d6520746f6f2066617200000000000000000000000000006044820152606401610693565b7ff94103142c1baabe9ac2b5d1487bf783de9e69cfeea9a72f5c9c94afd7877b8c610817813361064b565b600260fb54141561086a5760405162461bcd60e51b815260206004820152601f60248201527f5265656e7472616e637947756172643a207265656e7472616e742063616c6c006044820152606401610693565b600260fb556101365460ff16156108b65760405162461bcd60e51b815260206004820152601060248201526f14185d5cd8589b194e881c185d5cd95960821b6044820152606401610693565b6040805160a081018252600060208201819052918101829052606081018290526080810191909152610131546001600160a01b0389811691161480825215610a5557876001600160a01b031663a88863776040518163ffffffff1660e01b815260040160206040518083038186803b15801561093157600080fd5b505afa158015610945573d6000803e3d6000fd5b505050506040513d601f19601f820116820180604052508101906109699190613c86565b6109b55760405162461bcd60e51b815260206004820152601f60248201527f41727469737420636f6e747261637420696e636f72726563746c7920736574006044820152606401610693565b6040517fd48e638a000000000000000000000000000000000000000000000000000000008152600481018890526001600160a01b0389169063d48e638a9060240160206040518083038186803b158015610a0e57600080fd5b505afa158015610a22573d6000803e3d6000fd5b505050506040513d601f19601f82011682018060405250810190610a4691906138ac565b6001600160a01b031660608201525b6040516301ffc9a760e01b81526380ac58cd60e01b60048201526001600160a01b038916906301ffc9a79060240160206040518083038186803b158015610a9b57600080fd5b505afa158015610aaf573d6000803e3d6000fd5b505050506040513d601f19601f82011682018060405250810190610ad39190613c86565b80610b7057506040516301ffc9a760e01b81527fd9b67a260000000000000000000000000000000000000000000000000000000060048201526001600160a01b038916906301ffc9a79060240160206040518083038186803b158015610b3857600080fd5b505afa158015610b4c573d6000803e3d6000fd5b505050506040513d601f19601f82011682018060405250810190610b709190613c86565b610be25760405162461bcd60e51b815260206004820152603a60248201527f746f6b656e436f6e747261637420646f6573206e6f7420737570706f7274204560448201527f5243373231206f72204552433131353520696e746572666163650000000000006064820152608401610693565b6040516301ffc9a760e01b81526380ac58cd60e01b60048201526001600160a01b038916906301ffc9a79060240160206040518083038186803b158015610c2857600080fd5b505afa158015610c3c573d6000803e3d6000fd5b505050506040513d601f19601f82011682018060405250810190610c609190613c86565b1580156020830152336040830152610dce576040517f6352211e000000000000000000000000000000000000000000000000000000008152600481018890526000906001600160a01b038a1690636352211e9060240160206040518083038186803b158015610cce57600080fd5b505afa158015610ce2573d6000803e3d6000fd5b505050506040513d601f19601f82011682018060405250810190610d0691906138ac565b90506001600160a01b0381163314610d605760405162461bcd60e51b815260206004820152600960248201527f4e6f74206f776e657200000000000000000000000000000000000000000000006044820152606401610693565b604051632142170760e11b81526001600160a01b038281166004830152306024830152604482018a90528a16906342842e0e90606401600060405180830381600087803b158015610db057600080fd5b505af1158015610dc4573d6000803e3d6000fd5b5050505050610f2f565b6040517efdd58e0000000000000000000000000000000000000000000000000000000081523360048201526024810188905286906001600160a01b038a169062fdd58e9060440160206040518083038186803b158015610e2d57600080fd5b505afa158015610e41573d6000803e3d6000fd5b505050506040513d601f19601f82011682018060405250810190610e659190613d4c565b1015610eb35760405162461bcd60e51b815260206004820152601360248201527f53656e646572206973206e6f74206f776e6572000000000000000000000000006044820152606401610693565b604051637921219560e11b8152336004820152306024820152604481018890526064810187905260a06084820152600060a48201526001600160a01b0389169063f242432a9060c401600060405180830381600087803b158015610f1657600080fd5b505af1158015610f2a573d6000803e3d6000fd5b505050505b610f528160000151826020015183606001518a8a8d8b8b89604001516050611be0565b5050600160fb55505050505050565b6001600160a01b0381163314610fdf5760405162461bcd60e51b815260206004820152602f60248201527f416363657373436f6e74726f6c3a2063616e206f6e6c792072656e6f756e636560448201527f20726f6c657320666f722073656c6600000000000000000000000000000000006064820152608401610693565b610fe98282611c7f565b5050565b6000610ff9813361064b565b611001611d02565b50565b600260fb5414156110575760405162461bcd60e51b815260206004820152601f60248201527f5265656e7472616e637947756172643a207265656e7472616e742063616c6c006044820152606401610693565b600260fb5561106581611da0565b50600160fb55565b6000611079813361064b565b5061012e80546001600160a01b0393841673ffffffffffffffffffffffffffffffffffffffff199182161790915561012f8054929093169116179055565b60006110c3813361064b565b611001611ff3565b60006110d7813361064b565b610133546040516370a0823160e01b81523060048201526000916001600160a01b0316906370a082319060240160206040518083038186803b15801561111c57600080fd5b505afa158015611130573d6000803e3d6000fd5b505050506040513d601f19601f820116820180604052508101906111549190613d4c565b6101335460405163a9059cbb60e01b8152336004820152602481018390529192506001600160a01b03169063a9059cbb906044015b602060405180830381600087803b1580156111a357600080fd5b505af11580156111b7573d6000803e3d6000fd5b505050506040513d601f19601f8201168201806040525081019061076e9190613c86565b6000818152610135602052604081208190819081908190819081906111ff81612070565b61124b5760405162461bcd60e51b815260206004820152601360248201527f4974656d206973206e6f74206f6e2073616c65000000000000000000000000006044820152606401610693565b8054600282015460018301546004840154600590940154929c6001600160a01b039283169c5064010000000082049092169a506fffffffffffffffffffffffffffffffff84169950600160801b90930467ffffffffffffffff169750909550630100000090910460ff169350915050565b60006112c8813361064b565b610132546040516370a0823160e01b81523060048201526000916001600160a01b0316906370a082319060240160206040518083038186803b15801561130d57600080fd5b505afa158015611321573d6000803e3d6000fd5b505050506040513d601f19601f820116820180604052508101906113459190613d4c565b6101325460405163a9059cbb60e01b8152336004820152602481018390529192506001600160a01b03169063a9059cbb90604401611189565b600054610100900460ff1680611397575060005460ff16155b6113fa5760405162461bcd60e51b815260206004820152602e60248201527f496e697469616c697a61626c653a20636f6e747261637420697320616c72656160448201526d191e481a5b9a5d1a585b1a5e995960921b6064820152608401610693565b600054610100900460ff16158015611425576000805460ff1961ff0019909116610100171660011790555b6114306000336120af565b61145a7ff94103142c1baabe9ac2b5d1487bf783de9e69cfeea9a72f5c9c94afd7877b8c336120af565b6114626120b9565b61146a6120b9565b61147261218c565b61147a61223b565b610132805473ffffffffffffffffffffffffffffffffffffffff199081166001600160a01b03878116919091179092556101338054610131805484168a861617905561012d86905561012e8054734863902a91296682a71bcb72813f2589264ecf9090851617905561012f805473868bc583305405130cb8b1692daa3ba0e3be5cdb908516177fffffffffffffffffffff0000ffffffffffffffffffffffffffffffffffffffff1674140000000000000000000000000000000000000000177fffffffffffffffff0000ffffffffffffffffffffffffffffffffffffffffffff16761400000000000000000000000000000000000000000000177fffffffffffff0000ffffffffffffffffffffffffffffffffffffffffffffffff16781e000000000000000000000000000000000000000000000000179055600160a81b9216928616929092177fffffffffffffffffffff00ffffffffffffffffffffffffffffffffffffffffff1617905580156115f8576000805461ff00191690555b5050505050565b60008281526065602052604090206001015461161b813361064b565b61076e8383611c7f565b600260fb5414156116785760405162461bcd60e51b815260206004820152601f60248201527f5265656e7472616e637947756172643a207265656e7472616e742063616c6c006044820152606401610693565b600260fb556000818152610135602052604090206001015464010000000090046001600160a01b03163314156116f05760405162461bcd60e51b815260206004820152601360248201527f53656c6c657273206e6f7420616c6c6f776564000000000000000000000000006044820152606401610693565b61013254600082815261013560205260409081902060049081015491517f23b872dd00000000000000000000000000000000000000000000000000000000815233918101919091523060248201526fffffffffffffffffffffffffffffffff90911660448201526001600160a01b03909116906323b872dd90606401602060405180830381600087803b15801561178657600080fd5b505af115801561179a573d6000803e3d6000fd5b505050506040513d601f19601f820116820180604052508101906117be9190613c86565b50611065816122f2565b60006117d4813361064b565b5061012d55565b7ff94103142c1baabe9ac2b5d1487bf783de9e69cfeea9a72f5c9c94afd7877b8c611806813361064b565b6101365460ff161561184d5760405162461bcd60e51b815260206004820152601060248201526f14185d5cd8589b194e881c185d5cd95960821b6044820152606401610693565b8451835181146118c55760405162461bcd60e51b815260206004820152602a60248201527f666978656420707269636573206e6f7420657175616c20746f206e756d62657260448201527f206f6620746f6b656e73000000000000000000000000000000000000000000006064820152608401610693565b8083511461193b5760405162461bcd60e51b815260206004820152602c60248201527f7374617274696e672074696d6573206e6f7420657175616c20746f206e756d6260448201527f6572206f6620746f6b656e7300000000000000000000000000000000000000006064820152608401610693565b808551146119b05760405162461bcd60e51b8152602060048201526024808201527f616d6f756e74206e6f7420657175616c20746f206e756d626572206f6620746f60448201527f6b656e73000000000000000000000000000000000000000000000000000000006064820152608401610693565b60005b81811015611a7657611a64888883815181106119df57634e487b7160e01b600052603260045260246000fd5b6020026020010151888481518110611a0757634e487b7160e01b600052603260045260246000fd5b6020026020010151888581518110611a2f57634e487b7160e01b600052603260045260246000fd5b6020026020010151888681518110611a5757634e487b7160e01b600052603260045260246000fd5b6020026020010151610773565b80611a6e81613fbf565b9150506119b3565b5050505050505050565b60006001600160e01b031982167f4e2312e000000000000000000000000000000000000000000000000000000000148061061c575061061c8261256b565b60008281526065602090815260408083206001600160a01b038516845290915290205460ff16610fe957611afc816001600160a01b031660146125b9565b611b078360206125b9565b604051602001611b18929190613d91565b60408051601f198184030181529082905262461bcd60e51b825261069391600401613e12565b60008281526065602090815260408083206001600160a01b038516845290915290205460ff16610fe95760008281526065602090815260408083206001600160a01b03851684529091529020805460ff19166001179055611b9c3390565b6001600160a01b0316816001600160a01b0316837f2f8788117e7eff1d82e926ec794901d17c78024a50270940304540a733656f0d60405160405180910390a45050565b60006040518061014001604052808981526020018c151581526020018361ffff1681526020018b15158152602001846001600160a01b03168152602001876001600160a01b031681526020018a6001600160a01b03168152602001866fffffffffffffffffffffffffffffffff1681526020018567ffffffffffffffff168152602001888152509050611c728161282f565b5050505050505050505050565b60008281526065602090815260408083206001600160a01b038516845290915290205460ff1615610fe95760008281526065602090815260408083206001600160a01b0385168085529252808320805460ff1916905551339285917ff6391f5c32d9c69d2a47ea670b442974b53935d1edc7fd64eb21e047a839171b9190a45050565b6101365460ff16611d555760405162461bcd60e51b815260206004820152601460248201527f5061757361626c653a206e6f74207061757365640000000000000000000000006044820152606401610693565b610136805460ff191690557f5db9ee0a495bf2e6ff9c91a7834c1ba4fdd244a5e8aa4e537bd38aeae4b073aa335b6040516001600160a01b03909116815260200160405180910390a1565b600081815261013560205260409020600181015464010000000090046001600160a01b03163314611dd057600080fd5b6004810154600160801b900467ffffffffffffffff16611e325760405162461bcd60e51b815260206004820152601360248201527f4974656d206973206e6f74206f6e2073616c65000000000000000000000000006044820152606401610693565b604080516101408101825282548152600183015460ff8082161515602084015261ffff61010080840491909116948401949094526301000000820416151560608301526001600160a01b03640100000000909104811660808301526002840154811660a083015260038401541660c082015260048301546fffffffffffffffffffffffffffffffff811660e083015267ffffffffffffffff600160801b90910416918101919091526005820154610120820152611f66836000908152610135602052604081208181556001810180547fffffffffffffffff00000000000000000000000000000000000000000000000090811690915560028201805473ffffffffffffffffffffffffffffffffffffffff199081169091556003830180549091169055600482018054909116905560050155565b611f888160a00151826080015183600001518460600151856101200151612a81565b805160a082015160018401546040805187815260208101949094526001600160a01b039283169084015264010000000090041660608201527f1d3455ae18c7d52f1d55737e8ae874eac600d26b139f01f6b258ade7fa0d12d6906080015b60405180910390a1505050565b6101365460ff161561203a5760405162461bcd60e51b815260206004820152601060248201526f14185d5cd8589b194e881c185d5cd95960821b6044820152606401610693565b610136805460ff191660011790557f62e78cea01bee320cd4e420270b5ea74000d11b0c9f74754ebdbfc544b05a258611d833390565b6004810154600090600160801b900467ffffffffffffffff161580159061061c5750506004015442600160801b90910467ffffffffffffffff16111590565b610fe98282611b3e565b600054610100900460ff16806120d2575060005460ff16155b6121355760405162461bcd60e51b815260206004820152602e60248201527f496e697469616c697a61626c653a20636f6e747261637420697320616c72656160448201526d191e481a5b9a5d1a585b1a5e995960921b6064820152608401610693565b600054610100900460ff16158015612160576000805460ff1961ff0019909116610100171660011790555b612168612b78565b612170612b78565b612178612b78565b8015611001576000805461ff001916905550565b600054610100900460ff16806121a5575060005460ff16155b6122085760405162461bcd60e51b815260206004820152602e60248201527f496e697469616c697a61626c653a20636f6e747261637420697320616c72656160448201526d191e481a5b9a5d1a585b1a5e995960921b6064820152608401610693565b600054610100900460ff16158015612233576000805460ff1961ff0019909116610100171660011790555b612178612c32565b600054610100900460ff1680612254575060005460ff16155b6122b75760405162461bcd60e51b815260206004820152602e60248201527f496e697469616c697a61626c653a20636f6e747261637420697320616c72656160448201526d191e481a5b9a5d1a585b1a5e995960921b6064820152608401610693565b600054610100900460ff161580156122e2576000805460ff1961ff0019909116610100171660011790555b6122ea612b78565b612178612cf2565b60008181526101356020526040902061230a81612070565b6123565760405162461bcd60e51b815260206004820152601360248201527f4974656d206973206e6f74206f6e2073616c65000000000000000000000000006044820152606401610693565b604080516101408101825282548152600183015460ff8082161515602084015261ffff61010080840491909116948401949094526301000000820416151560608301526001600160a01b03640100000000909104811660808301526002840154811660a083015260038401541660c082015260048301546fffffffffffffffffffffffffffffffff811660e083015267ffffffffffffffff600160801b9091041691810191909152600582015461012082015261248a836000908152610135602052604081208181556001810180547fffffffffffffffff00000000000000000000000000000000000000000000000090811690915560028201805473ffffffffffffffffffffffffffffffffffffffff199081169091556003830180549091169055600482018054909116905560050155565b6124bd8160200151826040015183608001518460c001518560e001516fffffffffffffffffffffffffffffffff16612db8565b6124db8160a001513383600001518460600151856101200151612a81565b606080820151825160a08085015160e080870151608080890151604080518d815298151560208a01528801969096526001600160a01b03938416978701979097526fffffffffffffffffffffffffffffffff169585019590955233918401919091521660c08201527ffa2b75e3f7f53bd639e1bbc9402dfe683156ae8c21089c107dc22ac5cc5f06709101611fe6565b60006001600160e01b031982167f7965db0b00000000000000000000000000000000000000000000000000000000148061061c57506301ffc9a760e01b6001600160e01b031983161461061c565b606060006125c8836002613f42565b6125d3906002613f0a565b67ffffffffffffffff8111156125f957634e487b7160e01b600052604160045260246000fd5b6040519080825280601f01601f191660200182016040528015612623576020820181803683370190505b5090507f30000000000000000000000000000000000000000000000000000000000000008160008151811061266857634e487b7160e01b600052603260045260246000fd5b60200101907effffffffffffffffffffffffffffffffffffffffffffffffffffffffffffff1916908160001a9053507f7800000000000000000000000000000000000000000000000000000000000000816001815181106126d957634e487b7160e01b600052603260045260246000fd5b60200101907effffffffffffffffffffffffffffffffffffffffffffffffffffffffffffff1916908160001a9053506000612715846002613f42565b612720906001613f0a565b90505b60018111156127d9577f303132333435363738396162636465660000000000000000000000000000000085600f166010811061276f57634e487b7160e01b600052603260045260246000fd5b1a60f81b82828151811061279357634e487b7160e01b600052603260045260246000fd5b60200101907effffffffffffffffffffffffffffffffffffffffffffffffffffffffffffff1916908160001a90535060049490941c936127d281613fa8565b9050612723565b5083156128285760405162461bcd60e51b815260206004820181905260248201527f537472696e67733a20686578206c656e67746820696e73756666696369656e746044820152606401610693565b9392505050565b600061283b6101345490565b60008181526101356020908152604091829020855181559085015160018201805493870151606088015160808901516001600160a01b03908116640100000000027fffffffffffffffff0000000000000000000000000000000000000000ffffffff92151563010000000263ff0000001961ffff90951661010090810262ffff001998151560ff19909b169a909a17979097169890981793909316969096171617905560a086015160028301805491851673ffffffffffffffffffffffffffffffffffffffff1992831617905560c08701516003840180549190951691161790925560e08501516004820180549387015167ffffffffffffffff16600160801b027fffffffffffffffff0000000000000000ffffffffffffffffffffffffffffffff6fffffffffffffffffffffffffffffffff9093167fffffffffffffffffffffffffffffffff0000000000000000000000000000000090951694909417919091169290921790915561012084015160059091015590506129c161013480546001019055565b7f8fac926427c3a798cb57d669a25bc0a0f804a84b334bf5589e801f92f86e84ff81836060015184600001518560a001518660e001518761010001518860800151896101200151604051612a75989796959493929190978852951515602088015260408701949094526001600160a01b0392831660608701526fffffffffffffffffffffffffffffffff91909116608086015267ffffffffffffffff1660a08501521660c083015260e08201526101000190565b60405180910390a15050565b8115612af457604051632142170760e11b81523060048201526001600160a01b038581166024830152604482018590528616906342842e0e90606401600060405180830381600087803b158015612ad757600080fd5b505af1158015612aeb573d6000803e3d6000fd5b505050506115f8565b604051637921219560e11b81523060048201526001600160a01b038581166024830152604482018590526064820183905260a06084830152600060a483015286169063f242432a9060c401600060405180830381600087803b158015612b5957600080fd5b505af1158015612b6d573d6000803e3d6000fd5b505050505050505050565b600054610100900460ff1680612b91575060005460ff16155b612bf45760405162461bcd60e51b815260206004820152602e60248201527f496e697469616c697a61626c653a20636f6e747261637420697320616c72656160448201526d191e481a5b9a5d1a585b1a5e995960921b6064820152608401610693565b600054610100900460ff16158015612178576000805460ff1961ff0019909116610100171660011790558015611001576000805461ff001916905550565b600054610100900460ff1680612c4b575060005460ff16155b612cae5760405162461bcd60e51b815260206004820152602e60248201527f496e697469616c697a61626c653a20636f6e747261637420697320616c72656160448201526d191e481a5b9a5d1a585b1a5e995960921b6064820152608401610693565b600054610100900460ff16158015612cd9576000805460ff1961ff0019909116610100171660011790555b600160fb558015611001576000805461ff001916905550565b600054610100900460ff1680612d0b575060005460ff16155b612d6e5760405162461bcd60e51b815260206004820152602e60248201527f496e697469616c697a61626c653a20636f6e747261637420697320616c72656160448201526d191e481a5b9a5d1a585b1a5e995960921b6064820152608401610693565b600054610100900460ff16158015612d99576000805460ff1961ff0019909116610100171660011790555b610136805460ff191690558015611001576000805461ff001916905550565b6101305461012d5481108015908190612ddc575061013354600160a01b900460ff16155b8015612df2575061013354600160a81b900460ff165b15612e065761012d549150612e0682613152565b61012f5460009081906103e890612e29908790600160a01b900461ffff16613f42565b612e339190613f22565b61012f549091506000906103e890612e57908890600160b01b900461ffff16613f42565b612e619190613f22565b61012f549091506000906103e890612e9a9089907801000000000000000000000000000000000000000000000000900461ffff16613f42565b612ea49190613f22565b90508a15612eca576103e8612ebd8861ffff8d16613f42565b612ec79190613f22565b93505b60008183612ed88787613f0a565b612ee29190613f0a565b612eec9190613f0a565b612ef69089613f61565b9050826101306000828254612f0b9190613f0a565b90915550508b15612f9f576101325460405163a9059cbb60e01b81526001600160a01b038b81166004830152602482018890529091169063a9059cbb90604401602060405180830381600087803b158015612f6557600080fd5b505af1158015612f79573d6000803e3d6000fd5b505050506040513d601f19601f82011682018060405250810190612f9d9190613c86565b505b6101325460405163a9059cbb60e01b81526001600160a01b038c81166004830152602482018490529091169063a9059cbb90604401602060405180830381600087803b158015612fee57600080fd5b505af1158015613002573d6000803e3d6000fd5b505050506040513d601f19601f820116820180604052508101906130269190613c86565b506101325461012e5460405163a9059cbb60e01b81526001600160a01b0391821660048201526024810187905291169063a9059cbb90604401602060405180830381600087803b15801561307957600080fd5b505af115801561308d573d6000803e3d6000fd5b505050506040513d601f19601f820116820180604052508101906130b19190613c86565b508115613144576101325461012f5460405163a9059cbb60e01b81526001600160a01b0391821660048201526024810185905291169063a9059cbb90604401602060405180830381600087803b15801561310a57600080fd5b505af115801561311e573d6000803e3d6000fd5b505050506040513d601f19601f820116820180604052508101906131429190613c86565b505b505050505050505050505050565b61013380547fffffffffffffffffffffff00ffffffffffffffffffffffffffffffffffffffff16600160a01b179055600061318e600283613f22565b9050600061319c8284613f61565b610133546040516370a0823160e01b81523060048201529192506000916001600160a01b03909116906370a082319060240160206040518083038186803b1580156131e657600080fd5b505afa1580156131fa573d6000803e3d6000fd5b505050506040513d601f19601f8201168201806040525081019061321e9190613d4c565b905061322983613334565b610133546040516370a0823160e01b815230600482015260009183916001600160a01b03909116906370a082319060240160206040518083038186803b15801561327257600080fd5b505afa158015613286573d6000803e3d6000fd5b505050506040513d601f19601f820116820180604052508101906132aa9190613d4c565b6132b49190613f61565b90506132c083826134fa565b505060408051868152602081018490529081018590527f17bbfb9a6069321b6ded73bd96327c9e6b7212a5cd51ff219cd61370acafb561915060600160405180910390a1505061013380547fffffffffffffffffffffff00ffffffffffffffffffffffffffffffffffffffff169055505050565b60408051600280825260608201835260009260208301908036833750506101325482519293506001600160a01b03169183915060009061338457634e487b7160e01b600052603260045260246000fd5b6001600160a01b039283166020918202929092010152610133548251911690829060019081106133c457634e487b7160e01b600052603260045260246000fd5b6001600160a01b0392831660209182029290920101526101325460405163095ea7b360e01b8152737a250d5630b4cf539739df2c5dacb4c659f2488d60048201526024810185905291169063095ea7b390604401602060405180830381600087803b15801561343257600080fd5b505af1158015613446573d6000803e3d6000fd5b505050506040513d601f19601f8201168201806040525081019061346a9190613c86565b506040517f5c11d795000000000000000000000000000000000000000000000000000000008152737a250d5630b4cf539739df2c5dacb4c659f2488d90635c11d795906134c4908590600090869030904290600401613e45565b600060405180830381600087803b1580156134de57600080fd5b505af11580156134f2573d6000803e3d6000fd5b505050505050565b6101325460405163095ea7b360e01b8152737a250d5630b4cf539739df2c5dacb4c659f2488d600482015260248101849052600091829182916001600160a01b03169063095ea7b390604401602060405180830381600087803b15801561356057600080fd5b505af1158015613574573d6000803e3d6000fd5b505050506040513d601f19601f820116820180604052508101906135989190613c86565b506101335460405163095ea7b360e01b8152737a250d5630b4cf539739df2c5dacb4c659f2488d6004820152602481018690526001600160a01b039091169063095ea7b390604401602060405180830381600087803b1580156135fa57600080fd5b505af115801561360e573d6000803e3d6000fd5b505050506040513d601f19601f820116820180604052508101906136329190613c86565b5061013254610133546040517fe8e337000000000000000000000000000000000000000000000000000000000081526001600160a01b03928316600482015291166024820152604481018690526064810185905260006084820181905260a482018190523060c48301524260e48301529081908190737a250d5630b4cf539739df2c5dacb4c659f2488d9063e8e337009061010401606060405180830381600087803b1580156136e157600080fd5b505af11580156136f5573d6000803e3d6000fd5b505050506040513d601f19601f820116820180604052508101906137199190613d64565b919750955093505050509250925092565b600082601f83011261373a578081fd5b8135602061374f61374a83613ee6565b613eb5565b828152818101908583018385028701840188101561376b578586fd5b855b858110156137895781358452928401929084019060010161376d565b5090979650505050505050565b600082601f8301126137a6578081fd5b813560206137b661374a83613ee6565b82815281810190858301838502870184018810156137d2578586fd5b855b85811015613789576137e582613894565b845292840192908401906001016137d4565b600082601f830112613807578081fd5b813567ffffffffffffffff81111561382157613821613ff0565b613834601f8201601f1916602001613eb5565b818152846020838601011115613848578283fd5b816020850160208301379081016020019190915292915050565b80356fffffffffffffffffffffffffffffffff8116811461061f57600080fd5b803561ffff8116811461061f57600080fd5b803567ffffffffffffffff8116811461061f57600080fd5b6000602082840312156138bd578081fd5b815161282881614006565b600080604083850312156138da578081fd5b82356138e581614006565b915060208301356138f581614006565b809150509250929050565b60008060008060808587031215613915578182fd5b843561392081614006565b9350602085013561393081614006565b9250604085013561394081614006565b9396929550929360600135925050565b600080600080600060a08688031215613967578081fd5b853561397281614006565b9450602086013561398281614006565b9350604086013567ffffffffffffffff8082111561399e578283fd5b6139aa89838a0161372a565b945060608801359150808211156139bf578283fd5b6139cb89838a0161372a565b935060808801359150808211156139e0578283fd5b506139ed888289016137f7565b9150509295509295909350565b60008060008060808587031215613a0f578384fd5b8435613a1a81614006565b93506020850135613a2a81614006565b925060408501359150606085013567ffffffffffffffff811115613a4c578182fd5b613a58878288016137f7565b91505092959194509250565b600080600080600060a08688031215613a7b578283fd5b8535613a8681614006565b94506020860135613a9681614006565b93506040860135925060608601359150608086013567ffffffffffffffff811115613abf578182fd5b6139ed888289016137f7565b600080600080600060a08688031215613ae2578283fd5b8535613aed81614006565b945060208681013567ffffffffffffffff80821115613b0a578586fd5b613b168a838b0161372a565b96506040890135915080821115613b2b578586fd5b613b378a838b0161372a565b95506060890135915080821115613b4c578384fd5b818901915089601f830112613b5f578384fd5b8135613b6d61374a82613ee6565b81815284810190848601868402860187018e1015613b89578788fd5b8795505b83861015613bb257613b9e81613862565b835260019590950194918601918601613b8d565b50965050506080890135925080831115613bca578384fd5b50506139ed88828901613796565b600080600080600060a08688031215613bef578283fd5b8535613bfa81614006565b945060208601359350613c0f60408701613862565b9250613c1d60608701613894565b949793965091946080013592915050565b600080600080600060a08688031215613c45578283fd5b8535613c5081614006565b94506020860135935060408601359250613c6c60608701613862565b9150613c7a60808701613894565b90509295509295909350565b600060208284031215613c97578081fd5b81518015158114612828578182fd5b600060208284031215613cb7578081fd5b5035919050565b60008060408385031215613cd0578182fd5b8235915060208301356138f581614006565b600060208284031215613cf3578081fd5b81356001600160e01b031981168114612828578182fd5b600080600060608486031215613d1e578081fd5b613d2784613882565b9250613d3560208501613882565b9150613d4360408501613882565b90509250925092565b600060208284031215613d5d578081fd5b5051919050565b600080600060608486031215613d78578081fd5b8351925060208401519150604084015190509250925092565b60007f416363657373436f6e74726f6c3a206163636f756e742000000000000000000082528351613dc9816017850160208801613f78565b7f206973206d697373696e6720726f6c65200000000000000000000000000000006017918401918201528351613e06816028840160208801613f78565b01602801949350505050565b6000602082528251806020840152613e31816040850160208701613f78565b601f01601f19169190910160400192915050565b600060a082018783526020878185015260a0604085015281875180845260c0860191508289019350845b81811015613e945784516001600160a01b031683529383019391830191600101613e6f565b50506001600160a01b03969096166060850152505050608001529392505050565b604051601f8201601f1916810167ffffffffffffffff81118282101715613ede57613ede613ff0565b604052919050565b600067ffffffffffffffff821115613f0057613f00613ff0565b5060209081020190565b60008219821115613f1d57613f1d613fda565b500190565b600082613f3d57634e487b7160e01b81526012600452602481fd5b500490565b6000816000190483118215151615613f5c57613f5c613fda565b500290565b600082821015613f7357613f73613fda565b500390565b60005b83811015613f93578181015183820152602001613f7b565b83811115613fa2576000848401525b50505050565b600081613fb757613fb7613fda565b506000190190565b6000600019821415613fd357613fd3613fda565b5060010190565b634e487b7160e01b600052601160045260246000fd5b634e487b7160e01b600052604160045260246000fd5b6001600160a01b038116811461100157600080fdfea264697066735822122054c87d1b9309dbf4bf55866a6ced65697880ddb90a4e64abc829b3af285c3e4c64736f6c63430008020033",
  "linkReferences": {},
  "deployedLinkReferences": {}
}